{
  "_format": "hh-sol-artifact-1",
  "contractName": "FarmerBuyerContract",
  "sourceName": "contracts/FarmerBuyerContract.sol",
  "abi": [
    {
      "inputs": [
        {
          "internalType": "address",
          "name": "_buyer",
          "type": "address"
        },
        {
          "internalType": "uint256",
          "name": "_price",
          "type": "uint256"
        },
        {
          "internalType": "uint256",
          "name": "_quantity",
          "type": "uint256"
        },
        {
          "internalType": "uint256",
          "name": "_contractYears",
          "type": "uint256"
        }
      ],
      "stateMutability": "nonpayable",
      "type": "constructor"
    },
    {
      "anonymous": false,
      "inputs": [
        {
          "indexed": true,
          "internalType": "address",
          "name": "farmer",
          "type": "address"
        },
        {
          "indexed": true,
          "internalType": "address",
          "name": "buyer",
          "type": "address"
        },
        {
          "indexed": false,
          "internalType": "uint256",
          "name": "price",
          "type": "uint256"
        },
        {
          "indexed": false,
          "internalType": "uint256",
          "name": "quantity",
          "type": "uint256"
        },
        {
          "indexed": false,
          "internalType": "uint256",
          "name": "contractYears",
          "type": "uint256"
        }
      ],
      "name": "ContractCreated",
      "type": "event"
    },
    {
      "anonymous": false,
      "inputs": [
        {
          "indexed": true,
          "internalType": "address",
          "name": "buyer",
          "type": "address"
        },
        {
          "indexed": false,
          "internalType": "uint256",
          "name": "amount",
          "type": "uint256"
        },
        {
          "indexed": false,
          "internalType": "uint256",
          "name": "paymentsMade",
          "type": "uint256"
        }
      ],
      "name": "PaymentMade",
      "type": "event"
    },
    {
      "anonymous": false,
      "inputs": [
        {
          "indexed": true,
          "internalType": "address",
          "name": "farmer",
          "type": "address"
        },
        {
          "indexed": true,
          "internalType": "address",
          "name": "buyer",
          "type": "address"
        }
      ],
      "name": "ProductDelivered",
      "type": "event"
    },
    {
      "inputs": [],
      "name": "buyer",
      "outputs": [
        {
          "internalType": "address",
          "name": "",
          "type": "address"
        }
      ],
      "stateMutability": "view",
      "type": "function"
    },
    {
      "inputs": [],
      "name": "confirmDelivery",
      "outputs": [],
      "stateMutability": "nonpayable",
      "type": "function"
    },
    {
      "inputs": [],
      "name": "contractYears",
      "outputs": [
        {
          "internalType": "uint256",
          "name": "",
          "type": "uint256"
        }
      ],
      "stateMutability": "view",
      "type": "function"
    },
    {
      "inputs": [],
      "name": "farmer",
      "outputs": [
        {
          "internalType": "address",
          "name": "",
          "type": "address"
        }
      ],
      "stateMutability": "view",
      "type": "function"
    },
    {
      "inputs": [],
      "name": "getPaymentsMade",
      "outputs": [
        {
          "internalType": "uint256",
          "name": "",
          "type": "uint256"
        }
      ],
      "stateMutability": "view",
      "type": "function"
    },
    {
      "inputs": [],
      "name": "isContractComplete",
      "outputs": [
        {
          "internalType": "bool",
          "name": "",
          "type": "bool"
        }
      ],
      "stateMutability": "view",
      "type": "function"
    },
    {
      "inputs": [],
      "name": "isPaid",
      "outputs": [
        {
          "internalType": "bool",
          "name": "",
          "type": "bool"
        }
      ],
      "stateMutability": "view",
      "type": "function"
    },
    {
      "inputs": [],
      "name": "makePayment",
      "outputs": [],
      "stateMutability": "payable",
      "type": "function"
    },
    {
      "inputs": [],
      "name": "paymentsMade",
      "outputs": [
        {
          "internalType": "uint256",
          "name": "",
          "type": "uint256"
        }
      ],
      "stateMutability": "view",
      "type": "function"
    },
    {
      "inputs": [],
      "name": "price",
      "outputs": [
        {
          "internalType": "uint256",
          "name": "",
          "type": "uint256"
        }
      ],
      "stateMutability": "view",
      "type": "function"
    },
    {
      "inputs": [],
      "name": "quantity",
      "outputs": [
        {
          "internalType": "uint256",
          "name": "",
          "type": "uint256"
        }
      ],
      "stateMutability": "view",
      "type": "function"
    }
  ],
  "bytecode": "0x60806040526006805460ff1916905534801561001a57600080fd5b50604051610715380380610715833981016040819052610039916101d6565b6000811161009f5760405162461bcd60e51b815260206004820152602860248201527f436f6e7472616374207965617273206d7573742062652067726561746572207460448201526768616e207a65726f60c01b60648201526084015b60405180910390fd5b600083116100ef5760405162461bcd60e51b815260206004820152601f60248201527f5072696365206d7573742062652067726561746572207468616e207a65726f006044820152606401610096565b6000821161014a5760405162461bcd60e51b815260206004820152602260248201527f5175616e74697479206d7573742062652067726561746572207468616e207a65604482015261726f60f01b6064820152608401610096565b600080546001600160a01b0319908116339081178355600180546001600160a01b03891693168317905560028690556003859055600484905560059290925560408051868152602081018690529081018490529091907ff7140fc59a3419c7ddb1d0f8dadd2536d111632dc26793137700c8513aa54f609060600160405180910390a350505050610221565b600080600080608085870312156101ec57600080fd5b84516001600160a01b038116811461020357600080fd5b60208601516040870151606090970151919890975090945092505050565b6104e5806102306000396000f3fe60806040526004361061009c5760003560e01c80637150d8ae116100645780637150d8ae146101365780637973f6851461016e578063a035b1fe14610184578063d811fcf01461019a578063d8d79700146101ba578063f10ceea9146101c257600080fd5b806317fc45e2146100a1578063209ebc08146100ca578063411ee767146100f45780634ff59cf8146101095780635e10177b1461011f575b600080fd5b3480156100ad57600080fd5b506100b760035481565b6040519081526020015b60405180910390f35b3480156100d657600080fd5b506006546100e49060ff1681565b60405190151581526020016100c1565b34801561010057600080fd5b506005546100b7565b34801561011557600080fd5b506100b760055481565b34801561012b57600080fd5b506101346101dc565b005b34801561014257600080fd5b50600154610156906001600160a01b031681565b6040516001600160a01b0390911681526020016100c1565b34801561017a57600080fd5b506100b760045481565b34801561019057600080fd5b506100b760025481565b3480156101a657600080fd5b50600054610156906001600160a01b031681565b6101346102d6565b3480156101ce57600080fd5b5060045460055410156100e4565b6000546001600160a01b0316331461023b5760405162461bcd60e51b815260206004820181905260248201527f4f6e6c79206661726d65722063616e20636f6e6669726d2064656c697665727960448201526064015b60405180910390fd5b60065460ff1661028d5760405162461bcd60e51b815260206004820152601860248201527f5061796d656e74206e6f742072656365697665642079657400000000000000006044820152606401610232565b6006805460ff19169055600154600080546040516001600160a01b0393841693909116917f7b2375ea59e583d947bfdaa1092d9c1f3b3a3bc8218ce55fb7976286ea48b32191a3565b6001546001600160a01b031633146103305760405162461bcd60e51b815260206004820152601b60248201527f4f6e6c792062757965722063616e206d616b65207061796d656e7400000000006044820152606401610232565b6004546005541061037c5760405162461bcd60e51b8152602060048201526016602482015275105b1b081c185e5b595b9d1cc818dbdb5c1b195d195960521b6044820152606401610232565b60025434146103cd5760405162461bcd60e51b815260206004820152601860248201527f5061796d656e74206d757374206d6174636820707269636500000000000000006044820152606401610232565b60065460ff16156104205760405162461bcd60e51b815260206004820152601b60248201527f416c7265616479207061696420666f722074686973206379636c6500000000006044820152606401610232565b6006805460ff191660011790556005805490600061043d83610488565b909155505060055460405133917fc65a4e529c0450a515882508bea7ee3485fbfdf8436e0bd13dc38dfbc859b1cb9161047e91348252602082015260400190565b60405180910390a2565b6000600182016104a857634e487b7160e01b600052601160045260246000fd5b506001019056fea26469706673582212203d724018609e20d7b072247f06013f7cfa4b12d3e34f1ccc8495b0462e0ff5ce64736f6c634300081c0033",
  "linkReferences": {},
  "deployedLinkReferences": {}
}